:100000000C94E1000C9409010C9409010C94090171
:100010000C9409010C9409010C9409010C94380406
:100020000C9409010C9409010C9409010C94090128
:100030000C9409010C9409010C9409010C94090118
:100040000C94EC040C9409010C94BA040C949404E0
:100050000C9409010C9409010C9409010C940901F8
:100060000C9409010C94090100407A10F35A00A085
:10007000724E18090010A5D4E80000E87648170071
:1000800000E40B54020000CA9A3B000000E1F505B1
:10009000000080969800000040420F000000A086FB
:1000A00001000000102700000000E803000000002D
:1000B0006400000000000A000000000001000000D1
:1000C00000002C76D888DC674F0823DFC1DFAE59EB
:1000D000E1B1B796E5E3E453C63AE651997696E87E
:1000E000E6C28426EB898C9B62ED407C6FFCEFBC02
:1000F0009C9F40F2BAA56FA5F490055A2AF75C932D
:100100006B6CF9676DC11BFCE0E40D47FEF520E662
:10011000B500D0ED902E0300943577050080841E45
:10012000080000204E0A000000C80C333333330FA0
:10013000986E12831141EF8D2114893BE65516CF3D
:10014000FEE6DB18D1844B381BF77C1D901DA4BB49
:10015000E424203284725E228100C9F124ECA1E5FE
:100160003D2700000000240027002A0000000000B6
:1001700023002600290000000008000201000003FF
:100180000407000000000000000001020408102025
:100190004080010204081020010204081020000021
:1001A0000000250028002B000404040404040404B7
:1001B00002020202020203030303030302003605E4
:1001C0001A0811241FBECFEFD8E0DEBFCDBF22E05A
:1001D000A6E6B1E001C01D92AF33B207E1F711E02E
:1001E000A0E0B1E0E8EBFDE102C005900D92A6367B
:1001F000B107D9F710E0C0EED0E004C02197FE01AE
:100200000E94BD0CCF3DD107C9F70E946E050C942A
:10021000CF0E0C940000CF92DF92EF92FF920F93DB
:100220001F93CF93DF936C017A018B01C0E0D0E084
:10023000CE15DF0589F0D8016D918D01D601ED91C4
:10024000FC910190F081E02DC6010995892B11F4F4
:100250007E0102C02196ECCFC701DF91CF911F91A3
:100260000F91FF90EF90DF90CF900895CF93DF93A1
:10027000FC01448155816081718182E991E00E9495
:100280000B01EC0142E050E069E171E082E991E0AC
:100290000E940B018C0F9D1FDF91CF91089508954F
:1002A00080E090E00895FC01538D448D252F30E0CF
:1002B000842F90E0821B930B541710F0CF96089573
:1002C00001970895FC01918D828D981761F0828DC0
:1002D000DF01A80FB11D5D968C91928D9F5F9F737A
:1002E000928F90E008958FEF9FEF0895FC01918D1C
:1002F000828D981731F0828DE80FF11D858D90E089
:1003000008958FEF9FEF0895FC01918D228D892F25
:1003100090E0805C9F4F821B91098F73992708950D
:1003200082E991E00E94840121E0892B09F420E018
:10033000822F0895FC01848DDF01A80FB11DA35AFF
:10034000BF4F2C91848D90E001968F739927848FF5
:10035000A689B7892C93A089B1898C9180648C93EC
:10036000938D848D981306C00288F389E02D8081D7
:100370008F7D80830895EF92FF920F931F93CF9309
:10038000DF93EC0181E0888F9B8D8C8D981305C0E5
:10039000E889F989808185FD24C0F62E0B8D10E057
:1003A0000F5F1F4F0F731127E02E8C8DE8120CC0CA
:1003B0000FB607FCFACFE889F989808185FFF5CF70
:1003C000CE010E949A01F1CF8B8DFE01E80FF11D45
:1003D000E35AFF4FF0820B8FEA89FB8980818062AC
:1003E00007C0EE89FF896083E889F989808180648C
:1003F000808381E090E0DF91CF911F910F91FF907A
:10040000EF900895CF93DF93EC01888D8823C9F096
:10041000EA89FB89808185FD05C0A889B9898C910D
:1004200086FD0FC00FB607FCF5CF808185FFF2CFA8
:10043000A889B9898C9185FFEDCFCE010E949A01E0
:10044000E7CFDF91CF91089580E090E0892B29F0EC
:100450000E94900181110C9400000895833081F076
:1004600028F4813099F08230A1F008958730A9F006
:100470008830B9F08430D1F4809180008F7D03C042
:10048000809180008F7780938000089584B58F7766
:1004900002C084B58F7D84BD08958091B0008F77B0
:1004A00003C08091B0008F7D8093B00008951F93AA
:1004B000CF93DF93282F30E0F901EA58FE4F849163
:1004C000F901E657FE4FD491F901E855FE4FC4916A
:1004D000CC23C9F0162F81110E942E02EC2FF0E0E0
:1004E000EE0FFF1FE256FE4FA591B4918FB7F8941F
:1004F000111105C09C91ED2FE095E92302C0EC910C
:10050000ED2BEC938FBFDF91CF911F9108959091C8
:100510000001981324C0ECEBF1E0E4919FEF90937D
:100520000001E130B9F098F0E230C9F49091700028
:100530009D7F9093700091E09093B0009091B100F6
:10054000987F94609093B1001092B30008C010920D
:100550006E0005C090916F009D7F90936F0060E0EA
:100560000C945702CF93DF9390E0FC01E657FE4FC7
:100570002491FC01E855FE4F8491882361F190E0BD
:10058000880F991FFC01EE59FE4FC591D491FC01D3
:10059000E256FE4FA591B491611109C09FB7F8943E
:1005A0008881209582238883EC912E230BC06230B2
:1005B00061F49FB7F8943881822F809583238883D4
:1005C000EC912E2B2C939FBF06C08FB7F894E88137
:1005D0002E2B28838FBFDF91CF9108958E3008F0A6
:1005E0008E508770806480937C0080917A00806454
:1005F00080937A0080917A0086FDFCCF809178000C
:100600002091790090E0922B08953FB7F894809163
:100610006B0190916C01A0916D01B0916E0126B5B6
:10062000A89B05C02F3F19F00196A11DB11D3FBF2A
:10063000BA2FA92F982F8827820F911DA11DB11DB8
:10064000BC01CD0142E0660F771F881F991F4A95B4
:10065000D1F708958F929F92AF92BF92CF92DF927F
:10066000EF92FF926B017C010E9405034B015C013C
:10067000C114D104E104F104F1F00E940503DC018E
:10068000CB0188199909AA09BB09883E9340A105A5
:10069000B10570F321E0C21AD108E108F10888EE33
:1006A000880E83E0981EA11CB11CC114D104E10482
:1006B000F10419F7DDCFFF90EF90DF90CF90BF905E
:1006C000AF909F908F900895CF93DF93EC01888136
:1006D0009981009711F00E94580D198218821D828D
:1006E0001C821B821A82DF91CF9108950E94BA0E5C
:1006F0000F931F93CF93DF93EC018881998100972B
:1007000029F02A813B812617370788F48B016F5F18
:100710007F4F0E94F00D009761F0998388831B83BF
:100720000A832C813D81232B11F4FC01108281E08E
:1007300001C080E0DF91CF911F910F910895EF925A
:10074000FF920F931F93CF93DF93EC01FB01848102
:100750009581E080F1800C811D81E114F104B1F0FC
:100760000097B9F0080F191FB801CE010E94780355
:10077000882361F0288139818C819D81B701820FA6
:10078000931F0E94C80E1D830C8303C0CE010E94DC
:100790006403CE01DF91CF911F910F91FF90EF90F5
:1007A0000895EF92FF920F931F93CF93DF93EC0185
:1007B000198218821B821A821D821C8261157105A2
:1007C00021F18B01FB0101900020E9F731977F01B6
:1007D000E61AF70AB7010E947803811109C0CE0119
:1007E000DF91CF911F910F91FF90EF900C946403D4
:1007F000FD82EC82B80188819981DF91CF911F91B0
:100800000F91FF90EF900C94C80EDF91CF911F9144
:100810000F91FF90EF900895EF92FF920F931F9327
:10082000CF93DF938C017B016115710569F0FB01AA
:1008300001900020E9F73197EF01C61BD70BBE01ED
:100840000E947803811104C0C8010E94640308C09B
:10085000F801D583C483B701808191810E94C80EBD
:10086000C801DF91CF911F910F91FF90EF900895F4
:100870001F920F920FB60F9211242F933F934F9315
:100880005F936F937F938F939F93AF93BF93EF93F8
:10089000FF938091780190917901A0917A01B091B4
:1008A0007B01892B8A2B8B2B51F180916F01E09179
:1008B0007001F09171019081892780838091780186
:1008C00090917901A0917A01B0917B0118161906D7
:1008D0001A061B06C4F48091780190917901A091C9
:1008E0007A01B0917B010197A109B1098093780148
:1008F00090937901A0937A01B0937B0104C0809119
:1009000000010E948702FF91EF91BF91AF919F91EB
:100910008F917F916F915F914F913F912F910F90A8
:100920000FBE0F901F9018951F920F920FB60F9247
:1009300011242F933F934F935F936F937F938F93E4
:100940009F93AF93BF93EF93FF9382E991E00E944F
:100950009A01FF91EF91BF91AF919F918F917F91FC
:100960006F915F914F913F912F910F900FBE0F901C
:100970001F9018951F920F920FB60F9211242F936C
:100980008F939F93EF93FF93E091A201F091A301C6
:100990008081E091A801F091A90182FD12C09081AF
:1009A0008091AB018F5F8F732091AC01821751F062
:1009B000E091AB01F0E0EE56FE4F958F8093AB01D6
:1009C00001C08081FF91EF919F918F912F910F90A6
:1009D0000FBE0F901F9018951F920F920FB60F9297
:1009E00011242F933F938F939F93AF93BF93809145
:1009F000670190916801A0916901B0916A013091FD
:100A0000660123E0230F2D3720F40196A11DB11DAF
:100A100005C026E8230F0296A11DB11D2093660193
:100A20008093670190936801A0936901B0936A0174
:100A300080916B0190916C01A0916D01B0916E015C
:100A40000196A11DB11D80936B0190936C01A09341
:100A50006D01B0936E01BF91AF919F918F913F91C6
:100A60002F910F900FBE0F901F901895E2E9F1E0C3
:100A70001382128288EE93E0A0E0B0E08483958335
:100A8000A683B7838BE091E09183808385EC90E02F
:100A90009587848784EC90E09787868780EC90E048
:100AA000918B808B81EC90E0938B828B82EC90E039
:100AB000958B848B86EC90E0978B868B118E128EB3
:100AC000138E148E6BE171E085E392E00E94D103F6
:100AD0006BE171E08FE292E00C94D103CF93DF934E
:100AE000CDB7DEB7AB970FB6F894DEBF0FBECDBF64
:100AF000789484B5826084BD84B5816084BD85B5F9
:100B0000826085BD85B5816085BD80916E00816004
:100B100080936E00109281008091810082608093AA
:100B200081008091810081608093810080918000AC
:100B30008160809380008091B10084608093B100D7
:100B40008091B00081608093B00080917A008460D1
:100B500080937A0080917A00826080937A008091FD
:100B60007A00816080937A0080917A008068809317
:100B70007A001092C10060E083E00E94B20260E05F
:100B80008EE00E94B20260E08FE00E94B20261E05B
:100B90008DE00E94B20261E082E00E94B20261E058
:100BA00085E00E94B202E091A201F091A30182E0EF
:100BB0008083E0919E01F0919F011082E091A0015D
:100BC000F091A1018FEC80831092AA01E091A6011F
:100BD000F091A70186E08083E091A401F091A50146
:100BE000808180618083E091A401F091A5018081E2
:100BF00088608083E091A401F091A50180818068E4
:100C00008083E091A401F091A50180818F7D808394
:100C100048EEC42E43E0D42EE12CF12C5FE3252EC8
:100C20005FE1352E68EC70E080E090E00E942A03DE
:100C3000E9E7F1E08491EDE8F1E01491EBEAF1E00D
:100C400074907720A1F081110E942E02E72DF0E030
:100C5000EE0FFF1FE459FE4FA591B4918C9118231C
:100C600031E020E009F430E0832F922F02C080E0D1
:100C700090E09093910180939001019709F0DCC07E
:100C80006CE171E085E392E00E940C0461E08DE08C
:100C90000E94570262E370E080E090E00E942A0325
:100CA00060E082E00E94570262E370E080E090E042
:100CB0000E942A0380910001853021F4ECEBF1E0E1
:100CC000149178C08F3F09F0ADC085E0809300019A
:100CD000ECEBF1E014911F3F09F4A4C0113011F1C5
:100CE000123009F443C0111165C014BC15BC84B5A1
:100CF000826084BD85B5816085BDEDEAF1E08491B7
:100D0000E82FF0E0EE0FFF1FE256FE4F8591949121
:100D10009093770180937601EFE8F1E084918093DE
:100D200075014AC01092800010928100809181006C
:100D30008860809381008091810081608093810030
:100D4000EDEAF1E08491E82FF0E0EE0FFF1FE256AC
:100D5000FE4F859194919093740180937301EFE815
:100D6000F1E084918093720111E026C01092B000EE
:100D70001092B1008091B00082608093B0008091A9
:100D8000B10081608093B100EDEAF1E08491E82F39
:100D9000F0E0EE0FFF1FE256FE4F85919491909385
:100DA000710180937001EFE8F1E0849180936F010D
:100DB00012E002C017FD36C061E085E00E94B20279
:100DC000112309F423C1123009F418C11130C1F400
:100DD00080918100887F81608093810030928900BA
:100DE00020928800C0927C01D0927D01E0927E0129
:100DF000F0927F0180916F00826080936F0012C03B
:100E0000123081F48FE38093B300C0927801D092C6
:100E10007901E0927A01F0927B018091700082600A
:100E20008093700062E370E080E090E00E942A030B
:100E300085E00E9487021AC068E371E085E392E0D2
:100E40000E940C0461E082E00E94570262E370E0BD
:100E500080E090E00E942A0360E08DE00E9457024B
:100E600062E370E080E090E00E942A038EE00E943E
:100E7000EE02BC01990F880B990B0E94AE0A609399
:100E80008C0170938D0180938E0190938F0120E0EF
:100E900030E040E85AE30E94E90A20E030E44CE9FF
:100EA00055E40E94E90A20E030E040E251E40E946B
:100EB0004B0C2B013C018FE00E94EE02BC01990F0C
:100EC000880B990B0E94AE0A609388017093890188
:100ED00080938A0190938B0120E030E040E85AE350
:100EE0000E94E90A21ED32E24BE15EE30E94DE0B53
:100EF0002CE837E640ED5BE30E944B0C4B015C01B4
:100F0000609384017093850180938601909387019B
:100F100029EC3EE84DE05BE3C301B2010E94E90A1F
:100F20009B01AC0162E27DEF86E89FE30E94DE0B4D
:100F30009B01AC01C501B4010E944B0C68A779A7C5
:100F40008AA79BA71BA21AA21DA21CA21FA21EA2B7
:100F50008E010F5F1F4F22E044E0C301B2010E94E7
:100F60002608BC01CE0182960E940C046AE471E05E
:100F7000C8010E94D103BE016E5D7F4FC8010E946F
:100F80009F030E94360189819A810E94580D8AA18F
:100F90009BA10E94580D1BA21AA21DA21CA21FA257
:100FA0001EA222E044E068A579A58AA59BA50E941F
:100FB0002608BC01CE0182960E940C0469E571E00E
:100FC000C8010E94D103BE016E5D7F4FC8010E941F
:100FD0009F030E94360189819A810E94580D8AA13F
:100FE0009BA10E94580D8FE292E00E94360185E39A
:100FF00092E00E9436010E94240214CE8091B1003A
:10100000887F83608093B10089EFFDCE85B5887FAE
:10101000836085BDFCE7F7BDC0928001D09281015D
:10102000E0928201F092830180916E008260809351
:101030006E00F8CE80912F02909130020E94580DE0
:1010400080913502909136020C94580DEF920F93D7
:101050001F93CF93DF93E80147FD02C034E001C046
:1010600034E1E42F440FFF0BF7FF03C0F195E19546
:10107000F109E32E022F2E2FAE010E944608CE0169
:10108000DF91CF911F910F91EF9008954F925F9252
:101090006F927F929F92AF92BF92CF92DF92EF9228
:1010A000FF920F931F93CF93DF93CDB7DEB72997AE
:1010B0000FB6F894DEBF0FBECDBF6A01122FB02E5F
:1010C0002BE3201720F0FF24F394F00E02C0BCE3C2
:1010D000FB2E0F2D27E0AE014F5F5F4F0E94D4091A
:1010E000AC018981982F9970913031F0E1FC06C0F4
:1010F000E0FE06C090E205C09DE203C09BE201C095
:1011000090E0EE2DE07183FF3CC0911102C083E0BE
:1011100001C084E0811718F4212F281B01C020E0B2
:10112000E1110BC0F601822F30E2882319F03193D0
:101130008150FBCFC20ED11C20E0992329F0D601AB
:101140009C93F60131966F01C6010396E2FE0AC038
:101150003EE4D6013C9341E411964C9311971296CC
:101160003C9306C03EE6F601308341E6418332837C
:10117000FC01322F40E2332309F442C04193315045
:10118000FACF82FF44C0911102C083E001C084E025
:10119000811718F4212F281B01C020E0E1110BC09A
:1011A000F601822F30E2882319F031938150FBCF72
:1011B000C20ED11C20E0992329F0D6019C93F601A0
:1011C00031966F01C6010396E2FE0BC039E4D601E9
:1011D0003C933EE411963C93119736E412963C936F
:1011E00007C039E6F60130833EE6318336E63283C6
:1011F000FC01322F40E2332319F041933150FBCFF1
:10120000FC01E20FF11D10828EEF9FEFB7C0F1E0FD
:10121000911101C0F0E06F2F70E01416150624F450
:101220009A012F5F3F4F02C021E030E0260F371FA9
:10123000BB2029F06B2D70E06F5F7F4F02C060E034
:1012400070E0260F371F612F70E0261737071CF458
:10125000121B212F01C020E03E2D387159F4D60118
:10126000322F60E2332319F06D933150FBCFC20E61
:10127000D11C20E0FF2331F0D6019C93B6016F5FB3
:101280007F4F6B01E1110BC0F601922F30E39923E0
:1012900019F031939150FBCFC20ED11C20E09F2D4D
:1012A000940F3A81782F7071A72E84FF03C03133D9
:1012B00009F49150191624F4993018F098E001C0FF
:1012C00091E0E42F852F57FF02C0E0E080E06E2F11
:1012D000782FE0E0F0E0AEE29A2E3A01691A710848
:1012E0002A01461A570A0B2D10E011950195110994
:1012F0006F3F8FEF780729F4D6019C92C6010196C3
:101300006C014617570784F0661677066CF47F0168
:10131000E40CF51CA1E0B0E0AC0FBD1FEA0EFB1E13
:10132000D7011196BC9002C090E3B92E61507109AB
:101330003196C60101967C016017710724F0D60131
:10134000BC926C01D5CF6417750741F4363320F495
:10135000353321F4A11002C081E3B82EF601B0822A
:10136000F701822F90E2882319F091938150FBCFEF
:10137000F701E20FF11D108280E090E029960FB690
:10138000F894DEBF0FBECDBFDF91CF911F910F91BB
:10139000FF90EF90DF90CF90BF90AF909F907F90A5
:1013A0006F905F904F900895283008F027E0332722
:1013B000DA01990F311D87FD916000966105710575
:1013C00039F432602E5F3D9330E32A95E1F70895BA
:1013D0009F3F30F080387105610509F03C5F3C5F4C
:1013E0003D93913008F08068911DDF93CF931F9358
:1013F0000F93FF92EF92192F987F9695E92F96956C
:101400009695E90FFF27EE53FF4F99273327EE24D8
:10141000FF24A701E70105900894079428F4360FEC
:10142000E71EF81E491F511D660F771F881F991F61
:101430000694A1F70590079428F4E70EF81E491FBB
:10144000561FC11D770F881F991F661F0694A1F7AD
:101450000590079428F4F80E491F561FC71FD11D89
:10146000880F991F661F771F0694A1F705900794B0
:1014700020F4490F561FC71FD81F990F661F771FEB
:10148000881F0694A9F784911095177041F0D6959E
:10149000C79557954795F794E7941A95C1F7E8E6ED
:1014A000F0E06894159015913591659195910590AE
:1014B0007FE27395E118F10A430B560BC90BD00973
:1014C000C0F7E10CF11E431F561FC91FD01D7EF44B
:1014D000703311F48A95E6CFE894015030F0080F8C
:1014E0000AF40027021708F4202F2395022F7A33DD
:1014F00028F079E37D932A95E9F710C07D932A952A
:1015000089F6069497956795379517951794E1187E
:10151000F10A430B560BC90BD00998F023957E9125
:1015200073957A3308F070E37C932013B8F77E91BB
:1015300070617D9330F0839571E37D9370E32A951C
:10154000E1F71124EF90FF900F911F91CF91DF9160
:10155000992787FD90950895E89409C097FB3EF47C
:1015600090958095709561957F4F8F4F9F4F9923F0
:10157000A9F0F92F96E9BB279395F695879577956E
:101580006795B795F111F8CFFAF4BB0F11F460FF2E
:101590001BC06F5F7F4F8F4F9F4F16C0882311F086
:1015A00096E911C0772321F09EE8872F762F05C09A
:1015B000662371F096E8862F70E060E02AF09A9535
:1015C000660F771F881FDAF7880F9695879597F92A
:1015D00008950E94FC0A0C946D0B0E945F0B38F07A
:1015E0000E94660B20F0952311F00C94560B0C947E
:1015F0005C0B11240C94A10B0E947E0B70F3959F41
:10160000C1F3950F50E0551F629FF001729FBB27F9
:10161000F00DB11D639FAA27F00DB11DAA1F649F95
:101620006627B00DA11D661F829F2227B00DA11D48
:10163000621F739FB00DA11D621F839FA00D611DCE
:10164000221F749F3327A00D611D231F849F600DEF
:10165000211D822F762F6A2F11249F5750409AF018
:10166000F1F088234AF0EE0FFF1FBB1F661F771FA4
:10167000881F91505040A9F79E3F510580F00C946F
:10168000560B0C94A10B5F3FE4F3983ED4F3869580
:1016900077956795B795F795E7959F5FC1F7FE2B0F
:1016A000880F911D9695879597F9089597F99F67EB
:1016B00080E870E060E008959FEF80EC08950024DA
:1016C0000A941616170618060906089500240A94A7
:1016D00012161306140605060895092E0394000C2D
:1016E00011F4882352F0BB0F40F4BF2B11F460FFBC
:1016F00004C06F5F7F4F8F4F9F4F089557FD9058E5
:10170000440F551F59F05F3F71F04795880F97FBC5
:10171000991F61F09F3F79F087950895121613067F
:101720001406551FF2CF4695F1DF08C016161706AE
:101730001806991FF1CF86957105610508940895E3
:10174000E894BB2766277727CB0197F908952F9256
:101750003F924F925F926F927F928F929F92AF9241
:10176000BF92CF92DF92EF92FF920F931F93CF938E
:10177000DF93CDB7DEB7CA1BDB0B0FB6F894DEBF25
:101780000FBECDBF09942A88398848885F846E844B
:101790007D848C849B84AA84B984C884DF80EE8095
:1017A000FD800C811B81AA81B981CE0FD11D0FB69E
:1017B000F894DEBF0FBECDBFED0108955058BB2792
:1017C000AA270E94F60B0C946D0B0E945F0B38F059
:1017D0000E94660B20F039F49F3F19F426F40C9414
:1017E0005C0B0EF4E095E7FB0C94560BE92F0E947E
:1017F0007E0B58F3BA17620773078407950720F02A
:1018000079F4A6F50C94A00B0EF4E0950B2EBA2FEC
:10181000A02D0B01B90190010C01CA01A0011124F6
:10182000FF27591B99F0593F50F4503E68F11A16A2
:10183000F040A22F232F342F4427585FF3CF469533
:1018400037952795A795F0405395C9F77EF41F1655
:10185000BA0B620B730B840BBAF09150A1F0FF0F1F
:10186000BB1F661F771F881FC2F70EC0BA0F621F0B
:10187000731F841F48F4879577956795B795F795FB
:101880009E3F08F0B0CF9395880F08F09927EE0F90
:101890009795879508950E945F0C0C946D0B0E949C
:1018A000660B58F00E945F0B40F029F45F3F29F06F
:1018B0000C94560B51110C94A10B0C945C0B0E94D0
:1018C0007E0B68F39923B1F3552391F3951B550BC8
:1018D000BB27AA2762177307840738F09F5F5F4F03
:1018E000220F331F441FAA1FA9F335D00E2E3AF042
:1018F000E0E832D091505040E695001CCAF72BD05A
:10190000FE2F29D0660F771F881FBB1F26173707AA
:101910004807AB07B0E809F0BB0B802DBF01FF27DC
:1019200093585F4F3AF09E3F510578F00C94560B58
:101930000C94A10B5F3FE4F3983ED4F38695779522
:101940006795B795F7959F5FC9F7880F911D969595
:10195000879597F90895E1E0660F771F881FBB1FF1
:10196000621773078407BA0720F0621B730B840B9E
:10197000BA0BEE1F88F7E0950895EE0FFF1F059054
:10198000F491E02D0994CF93DF938230910510F408
:1019900082E090E0E0913D02F0913E0220E030E0F4
:1019A000C0E0D0E0309711F14081518148175907CC
:1019B000C0F04817590761F482819381209719F08C
:1019C0009B838A832BC090933E0280933D0226C066
:1019D0002115310519F04217530718F49A01BE0179
:1019E000DF01EF010280F381E02DDCCF211531050D
:1019F00009F1281B390B2430310590F412968D9192
:101A00009C9113976115710521F0FB0193838283EB
:101A100004C090933E0280933D02FD01329644C083
:101A2000FD01E20FF31F81939193225031092D9311
:101A30003C933AC020913B0230913C02232B41F46D
:101A4000209103013091040130933C0220933B022A
:101A500020910101309102012115310541F42DB78A
:101A60003EB74091050150910601241B350BE091D2
:101A70003B02F0913C02E217F307A0F42E1B3F0B50
:101A80002817390778F0AC014E5F5F4F24173507F0
:101A900048F04E0F5F1F50933C0240933B028193EE
:101AA000919302C0E0E0F0E0CF01DF91CF91089583
:101AB0000F931F93CF93DF93009709F48CC0FC0121
:101AC00032971382128200913D0210913E0201155D
:101AD000110581F420813181820F931F20913B02F7
:101AE00030913C022817390779F5F0933C02E093D6
:101AF0003B0271C0D80140E050E0AE17BF0750F480
:101B000012962D913C911397AD012115310509F1E4
:101B1000D901F3CF9D01DA01338322836081718182
:101B2000860F971F8217930769F4EC01288139818A
:101B3000260F371F2E5F3F4F318320838A819B8181
:101B400093838283452B29F4F0933E02E0933D0278
:101B500042C01396FC93EE931297ED01499159916F
:101B60009E01240F351FE217F30771F480819181E4
:101B7000840F951F029611969C938E938281938178
:101B800013969C938E931297E0E0F0E0D8011296A2
:101B90008D919C911397009719F0F8018C01F6CF65
:101BA0008D919C9198012E5F3F4F820F931F209142
:101BB0003B0230913C022817390769F4309729F429
:101BC00010923E0210923D0202C0138212821093C4
:101BD0003C0200933B02DF91CF911F910F9108953A
:101BE000A0E0B0E0E6EFFDE00C94AB0BEC01009759
:101BF00021F4CB010E94C30CB8C0FC01E60FF71F13
:101C00009C0122503109E217F30708F4ACC0D90156
:101C10000D911C91119706171707B0F005301105AB
:101C200008F49FC0C80104978617970708F499C065
:101C300002501109061B170B019311936D937C93AE
:101C4000CF010E94580D8DC05B01A01AB10A4C0152
:101C5000800E911EA0913D02B0913E0240E050E006
:101C6000E12CF12C109709F44AC0A815B905D1F55B
:101C70006D907C901197630182E0C80ED11CCA144C
:101C8000DB0480F1A3014A195B096A0182E0C80EF6
:101C9000D11C1296BC9012971396AC91B5E0CB165E
:101CA000D10440F0B282A38351834083D9016D9364
:101CB0007C930AC00E5F1F4FC301800F911FF90173
:101CC00091838083EB2DFA2FE114F10431F0D701D9
:101CD0001396FC93EE93129744C0F0933E02E09368
:101CE0003D023FC08D919C9111974817590708F408
:101CF000AC017D0112960D90BC91A02DB3CF8091C7
:101D00003B0290913C0288159905E1F4461757076C
:101D1000C8F48091010190910201009741F48DB7C0
:101D20009EB74091050150910601841B950BE81761
:101D3000F907C8F4F0933C02E0933B02F901718388
:101D400060830FC0CB010E94C30C7C01009759F047
:101D5000A801BE010E94BF0ECE010E94580DC7010E
:101D600004C0CE0102C080E090E0CDB7DEB7EEE067
:101D70000C94C70B81E090E0F8940C94CF0EFB011B
:101D8000DC0102C001900D9241505040D8F70895F7
:101D9000FB01DC0101900D920020E1F7089510E0B5
:101DA000C0EED0E004C0FE010E94BD0C2196C13EF1
:081DB000D107C9F7F894FFCF39
:101DB800FF00003F02800000000000BB010B015340
:101DC8000102028401620176010D0A00536D6F6BF6
:101DD800652044657465637465642E204669726580
:101DE80020416C65727421004E6F20536D6F6B65D6
:101DF8002044657465637465640054656D7065722C
:101E08006174757265203A200048756D696469745B
:061E180079203A200000D1
:107E0000112484B714BE81FFF0D085E080938100F7
:107E100082E08093C00088E18093C10086E0809377
:107E2000C20080E18093C4008EE0C9D0259A86E02C
:107E300020E33CEF91E0309385002093840096BBD3
:107E4000B09BFECF1D9AA8958150A9F7CC24DD24C4
:107E500088248394B5E0AB2EA1E19A2EF3E0BF2EE7
:107E6000A2D0813461F49FD0082FAFD0023811F036
:107E7000013811F484E001C083E08DD089C08234E0
:107E800011F484E103C0853419F485E0A6D080C0E4
:107E9000853579F488D0E82EFF2485D0082F10E0AE
:107EA000102F00270E291F29000F111F8ED06801E7
:107EB0006FC0863521F484E090D080E0DECF843638
:107EC00009F040C070D06FD0082F6DD080E0C81688
:107ED00080E7D80618F4F601B7BEE895C0E0D1E017
:107EE00062D089930C17E1F7F0E0CF16F0E7DF06D8
:107EF00018F0F601B7BEE89568D007B600FCFDCFD4
:107F0000A601A0E0B1E02C9130E011968C91119780
:107F100090E0982F8827822B932B1296FA010C0160
:107F200087BEE89511244E5F5F4FF1E0A038BF0790
:107F300051F7F601A7BEE89507B600FCFDCF97BE46
:107F4000E89526C08437B1F42ED02DD0F82E2BD052
:107F50003CD0F601EF2C8F010F5F1F4F84911BD097
:107F6000EA94F801C1F70894C11CD11CFA94CF0C13
:107F7000D11C0EC0853739F428D08EE10CD085E9AC
:107F80000AD08FE07ACF813511F488E018D01DD067
:107F900080E101D065CF982F8091C00085FFFCCF94
:107FA0009093C60008958091C00087FFFCCF809118
:107FB000C00084FD01C0A8958091C6000895E0E648
:107FC000F0E098E1908380830895EDDF803219F02E
:107FD00088E0F5DFFFCF84E1DECF1F93182FE3DFCA
:107FE0001150E9F7F2DF1F91089580E0E8DFEE27F6
:047FF000FF270994CA
:027FFE00040479
:0400000300007E007B
:00000001FF
