:100000000C94E1000C9409010C9409010C94090171
:100010000C9409010C9409010C9409010C944504F9
:100020000C9409010C9409010C9409010C94090128
:100030000C9409010C9409010C9409010C94090118
:100040000C94F9040C9409010C94C7040C94A104B9
:100050000C9409010C9409010C9409010C940901F8
:100060000C9409010C94090100407A10F35A00A085
:10007000724E18090010A5D4E80000E87648170071
:1000800000E40B54020000CA9A3B000000E1F505B1
:10009000000080969800000040420F000000A086FB
:1000A00001000000102700000000E803000000002D
:1000B0006400000000000A000000000001000000D1
:1000C00000002C76D888DC674F0823DFC1DFAE59EB
:1000D000E1B1B796E5E3E453C63AE651997696E87E
:1000E000E6C28426EB898C9B62ED407C6FFCEFBC02
:1000F0009C9F40F2BAA56FA5F490055A2AF75C932D
:100100006B6CF9676DC11BFCE0E40D47FEF520E662
:10011000B500D0ED902E0300943577050080841E45
:10012000080000204E0A000000C80C333333330FA0
:10013000986E12831141EF8D2114893BE65516CF3D
:10014000FEE6DB18D1844B381BF77C1D901DA4BB49
:10015000E424203284725E228100C9F124ECA1E5FE
:100160003D2700000000240027002A0000000000B6
:1001700023002600290000000008000201000003FF
:100180000407000000000000000001020408102025
:100190004080010204081020010204081020000021
:1001A0000000250028002B000404040404040404B7
:1001B00002020202020203030303030302004305D7
:1001C0004F0811241FBECFEFD8E0DEBFCDBF22E025
:1001D000A2EAB1E001C01D92A138B207E1F711E037
:1001E000A0E0B1E0E4E7FEE102C005900D92A23A82
:1001F000B107D9F710E0C0EED0E004C02197FE01AE
:100200000E941B0DCF3DD107C9F70E9481050C94B8
:100210002D0F0C940000CF92DF92EF92FF920F937C
:100220001F93CF93DF936C017A018B01C0E0D0E084
:10023000CE15DF0589F0D8016D918D01D601ED91C4
:10024000FC910190F081E02DC6010995892B11F4F4
:100250007E0102C02196ECCFC701DF91CF911F91A3
:100260000F91FF90EF90DF90CF90089542E050E023
:1002700069E171E08EEC91E00C940B01CF93DF9378
:10028000FC0144815581608171818EEC91E00E9476
:100290000B01EC0142E050E069E171E08EEC91E08D
:1002A0000E940B018C0F9D1FDF91CF91089508953F
:1002B00080E090E00895FC01538D448D252F30E0BF
:1002C000842F90E0821B930B541710F0CF96089563
:1002D00001970895FC01918D828D981761F0828DB0
:1002E000DF01A80FB11D5D968C91928D9F5F9F736A
:1002F000928F90E008958FEF9FEF0895FC01918D0C
:10030000828D981731F0828DE80FF11D858D90E078
:1003100008958FEF9FEF0895FC01918D228D892F15
:1003200090E0805C9F4F821B91098F7399270895FD
:100330008EEC91E00E948C0121E0892B09F420E0F1
:10034000822F0895FC01848DDF01A80FB11DA35AEF
:10035000BF4F2C91848D90E001968F739927848FE5
:10036000A689B7892C93A089B1898C9180648C93DC
:10037000938D848D981306C00288F389E02D8081C7
:100380008F7D80830895EF92FF920F931F93CF93F9
:10039000DF93EC0181E0888F9B8D8C8D981305C0D5
:1003A000E889F989808185FD24C0F62E0B8D10E047
:1003B0000F5F1F4F0F731127E02E8C8DE8120CC0BA
:1003C0000FB607FCFACFE889F989808185FFF5CF60
:1003D000CE010E94A201F1CF8B8DFE01E80FF11D2D
:1003E000E35AFF4FF0820B8FEA89FB89808180629C
:1003F00007C0EE89FF896083E889F989808180647C
:10040000808381E090E0DF91CF911F910F91FF9069
:10041000EF900895CF93DF93EC01888D8823C9F086
:10042000EA89FB89808185FD05C0A889B9898C91FD
:1004300086FD0FC00FB607FCF5CF808185FFF2CF98
:10044000A889B9898C9185FFEDCFCE010E94A201C8
:10045000E7CFDF91CF91089580E090E0892B29F0DC
:100460000E94980181110C9400000895833081F05E
:1004700028F4813099F08230A1F008958730A9F0F6
:100480008830B9F08430D1F4809180008F7D03C032
:10049000809180008F7780938000089584B58F7756
:1004A00002C084B58F7D84BD08958091B0008F77A0
:1004B00003C08091B0008F7D8093B00008951F939A
:1004C000CF93DF93282F30E0F901EA58FE4F849153
:1004D000F901E657FE4FD491F901E855FE4FC4915A
:1004E000CC23C9F0162F81110E943602EC2FF0E0C8
:1004F000EE0FFF1FE256FE4FA591B4918FB7F8940F
:10050000111105C09C91ED2FE095E92302C0EC91FB
:10051000ED2BEC938FBFDF91CF911F9108959091B8
:100520000001981324C0ECEBF1E0E4919FEF90936D
:100530000001E130B9F098F0E230C9F49091700018
:100540009D7F9093700091E09093B0009091B100E6
:10055000987F94609093B1001092B30008C01092FD
:100560006E0005C090916F009D7F90936F0060E0DA
:100570000C945F02CF93DF9390E0FC01E657FE4FAF
:100580002491FC01E855FE4F8491882361F190E0AD
:10059000880F991FFC01EE59FE4FC591D491FC01C3
:1005A000E256FE4FA591B491611109C09FB7F8942E
:1005B0008881209582238883EC912E230BC06230A2
:1005C00061F49FB7F8943881822F809583238883C4
:1005D000EC912E2B2C939FBF06C08FB7F894E88127
:1005E0002E2B28838FBFDF91CF9108958E3008F096
:1005F0008E508770806480937C0080917A00806444
:1006000080937A0080917A0086FDFCCF80917800FB
:100610002091790090E0922B08953FB7F894809153
:10062000A7019091A801A091A901B091AA0126B5B6
:10063000A89B05C02F3F19F00196A11DB11D3FBF1A
:10064000BA2FA92F982F8827820F911DA11DB11DA8
:10065000BC01CD0142E0660F771F881F991F4A95A4
:10066000D1F708958F929F92AF92BF92CF92DF926F
:10067000EF92FF926B017C010E940D034B015C0124
:10068000C114D104E104F104F1F00E940D03DC0176
:10069000CB0188199909AA09BB09883E9340A10595
:1006A000B10570F321E0C21AD108E108F10888EE23
:1006B000880E83E0981EA11CB11CC114D104E10472
:1006C000F10419F7DDCFFF90EF90DF90CF90BF904E
:1006D000AF909F908F9008950E94180F0F931F93D3
:1006E000CF93DF93EC0188819981009729F02A81CB
:1006F0003B812617370788F48B016F5F7F4F0E947D
:100700004E0E009761F0998388831B830A832C81A6
:100710003D81232B11F4FC01108281E001C080E0B7
:10072000DF91CF911F910F910895CF93DF93EC014B
:1007300088819981009711F00E94B60D1982188264
:100740001D821C821B821A82DF91CF910895EF9245
:10075000FF920F931F93CF93DF93EC01FB018481F2
:100760009581E080F1800C811D81E114F104B1F0EC
:100770000097B9F0080F191FB801CE010E946E034F
:10078000882361F0288139818C819D81B701820F96
:10079000931F0E94260F1D830C8303C0CE010E946D
:1007A0009503CE01DF91CF911F910F91FF90EF90B4
:1007B0000895EF92FF920F931F93CF93DF93EC0175
:1007C000198218821B821A821D821C826115710592
:1007D00021F18B01FB0101900020E9F731977F01A6
:1007E000E61AF70AB7010E946E03811109C0CE0113
:1007F000DF91CF911F910F91FF90EF900C94950393
:10080000FD82EC82B80188819981DF91CF911F919F
:100810000F91FF90EF900C94260FDF91CF911F91D5
:100820000F91FF90EF900895EF92FF920F931F9317
:10083000CF93DF938C017B016115710569F0FB019A
:1008400001900020E9F73197EF01C61BD70BBE01DD
:100850000E946E03811104C0C8010E94950308C064
:10086000F801D583C483B701808191810E94260F4E
:10087000C801DF91CF911F910F91FF90EF900895E4
:10088000FC01808191810C94B60D1F920F920FB6DE
:100890000F9211242F933F934F935F936F937F9306
:1008A0008F939F93AF93BF93EF93FF938091B40186
:1008B0009091B501A091B601B091B701892B8A2B17
:1008C0008B2B51F18091AB01E091AC01F091AD0126
:1008D0009081892780838091B4019091B501A09186
:1008E000B601B091B701181619061A061B06C4F412
:1008F0008091B4019091B501A091B601B091B7017A
:100900000197A109B1098093B4019093B501A09317
:10091000B601B093B70104C0809100010E948F021C
:10092000FF91EF91BF91AF919F918F917F916F91C7
:100930005F914F913F912F910F900FBE0F901F909D
:1009400018951F920F920FB60F9211242F933F9379
:100950004F935F936F937F938F939F93AF93BF93C7
:10096000EF93FF938EEC91E00E94A201FF91EF9133
:10097000BF91AF919F918F917F916F915F914F91B7
:100980003F912F910F900FBE0F901F9018951F92BF
:100990000F920FB60F9211242F938F939F93EF9383
:1009A000FF93E091DE01F091DF018081E091E401AD
:1009B000F091E50182FD12C090818091E7018F5F87
:1009C0008F732091E801821751F0E091E701F0E088
:1009D000E253FE4F958F8093E70101C08081FF9124
:1009E000EF919F918F912F910F900FBE0F901F90BD
:1009F00018951F920F920FB60F9211242F933F93C9
:100A00008F939F93AF93BF938091A3019091A40183
:100A1000A091A501B091A6013091A20123E0230F7E
:100A20002D3720F40196A11DB11D05C026E8230F26
:100A30000296A11DB11D2093A2018093A301909362
:100A4000A401A093A501B093A6018091A701909164
:100A5000A801A091A901B091AA010196A11DB11D03
:100A60008093A7019093A801A093A901B093AA0134
:100A7000BF91AF919F918F913F912F910F900FBE9A
:100A80000F901F901895EEECF1E01382128288EE21
:100A900093E0A0E0B0E084839583A683B7838BE0E6
:100AA00091E09183808385EC90E09587848784EC46
:100AB00090E09787868780EC90E0918B808B81EC2B
:100AC00090E0938B828B82EC90E0958B848B86EC0C
:100AD00090E0978B868B118E128E138E148E6BE1A5
:100AE00071E087E792E00E94D9036BE171E081E752
:100AF00092E00E94D9036BE171E08BE692E00C94E6
:100B0000D903CF93DF93CDB7DEB7A7970FB6F8948D
:100B1000DEBF0FBECDBF789484B5826084BD84B53E
:100B2000816084BD85B5826085BD85B5816085BDE8
:100B300080916E00816080936E00109281008091A0
:100B40008100826080938100809181008160809328
:100B50008100809180008160809380008091B1004D
:100B600084608093B1008091B00081608093B00078
:100B700080917A00846080937A0080917A0082600C
:100B800080937A0080917A00816080937A008091CE
:100B90007A00806880937A001092C10060E083E060
:100BA0000E94BA0260E08EE00E94BA0260E08FE02C
:100BB0000E94BA0261E08DE00E94BA0261E082E028
:100BC0000E94BA0261E085E00E94BA02E091DE0173
:100BD000F091DF0182E08083E091DA01F091DB01A6
:100BE0001082E091DC01F091DD018FEC80831092A6
:100BF000E601E091E201F091E30186E08083E0917B
:100C0000E001F091E101808180618083E091E00169
:100C1000F091E101808188608083E091E001F091B2
:100C2000E101808180688083E091E001F091E10141
:100C300080818F7D808348EEC42E43E0D42EE12C4A
:100C4000F12C5FE8252E51E0352E68EC70E080E055
:100C500090E00E943203E9E7F1E08491EDE8F1E0F1
:100C60001491EBEAF1E004910023A1F081110E94BC
:100C70003602E02FF0E0EE0FFF1FE459FE4FA59182
:100C8000B4918C91182391E080E009F490E0092F51
:100C9000182F02C000E010E01093CD010093CC01AA
:100CA0008EE00E94F602BC01990F880B990B0E94FE
:100CB000E30A6093C8017093C9018093CA019093BD
:100CC000CB0120E030E040E85AE30E94420B20E0F4
:100CD00030E44CE955E40E94420B20E030E040E271
:100CE00051E40E94A40C4B015C018FE00E94F602CB
:100CF000BC01990F880B990B0E94E30A6093C40111
:100D00007093C5018093C6019093C70120E030E045
:100D100040E85AE30E94420B21ED32E24BE15EE3F0
:100D20000E94370C2CE837E640ED5BE30E94A40CF0
:100D30002B013C016093C0017093C1018093C201FB
:100D40009093C30129EC3EE84DE05BE3C501B4019B
:100D50000E94420B9B01AC0162E27DEF86E89FE3BB
:100D60000E94370C9B01AC01C301B2010E94A40C8C
:100D70002B013C010130110509F0DBC06CE171E091
:100D800087E792E00E94140461E08DE00E945F0218
:100D900062E370E080E090E00E94320360E082E075
:100DA0000E945F0262E370E080E090E00E94320304
:100DB00080910001853021F4ECEBF1E0149175C0D5
:100DC0008F3F09F0ACC085E080930001ECEBF1E0CF
:100DD00014911F3F09F4A3C0113009F1123009F436
:100DE00041C0111162C014BC15BC84B5826084BDC1
:100DF00085B5816085BDEDEAF1E08491E82FF0E0F2
:100E0000EE0FFF1FE256FE4F859194919093B30130
:100E10008093B201F10184918093B10148C0109296
:100E20008000109281008091810088608093810011
:100E300080918100816080938100EDEAF1E08491EE
:100E4000E82FF0E0EE0FFF1FE256FE4F85919491E0
:100E50009093B0018093AF01F10184918093AE0132
:100E600011E025C01092B0001092B1008091B00046
:100E700082608093B0008091B10081608093B10066
:100E8000EDEAF1E08491E82FF0E0EE0FFF1FE2566B
:100E9000FE4F859194919093AD018093AC01F10147
:100EA00084918093AB0112E002C017FD38C061E06D
:100EB00085E00E94BA02112309F4DDC0123009F462
:100EC000D2C01130D1F480918100887F81608093FD
:100ED00081008FE39FE19093890080938800C09206
:100EE000B801D092B901E092BA01F092BB018091B1
:100EF0006F00826080936F0012C0123081F48FE324
:100F00008093B300C092B401D092B501E092B601D3
:100F1000F092B7018091700082608093700062E36C
:100F200070E080E090E00E94320385E00E948F0232
:100F30001AC068E371E087E792E00E94140461E060
:100F400082E00E945F0262E370E080E090E00E9435
:100F5000320360E08DE00E945F0262E370E080E0B7
:100F600090E00E94320320E030E044E652E4C50104
:100F7000B4010E94160D87FD0AC06AE471E081E7A2
:100F800092E00E94140481E792E00E943E0120E07A
:100F900030E040EA52E4C301B2010E94160D87FD21
:100FA0000AC063E671E08BE692E00E9414048BE6CF
:100FB00092E00E943E010E9436010E9436011BA26F
:100FC0001AA21DA21CA21FA21EA28E010F5F1F4FFC
:100FD00022E044E0C501B4010E945B08BC01CE01DF
:100FE00082960E94140467E871E0C8010E94D90348
:100FF000BE016E5D7F4FC8010E94A7030E943E01A3
:10100000C8010E944004CE0182960E9440041BA2A7
:101010001AA21DA21CA21FA21EA222E044E0C3012C
:10102000B2010E945B08BC01CE0182960E941404AA
:1010300066E971E0C8010E94D903BE016E5D7F4F71
:10104000C8010E94A7030E943E01C8010E944004FB
:10105000CE0182960E94400487E792E00E943E0102
:101060000E942C02F2CD8091B100887F8360809332
:10107000B10089EF45CF85B5887F836085BD9CE74A
:1010800097BDC092BC01D092BD01E092BE01F0922A
:10109000BF0180916E00826080936E0040CF8BE62E
:1010A00092E00E94400481E792E00E94400487E7BA
:1010B00092E00C944004EF920F931F93CF93DF9331
:1010C000E80147FD02C034E001C034E1E42F440FE1
:1010D000FF0BF7FF03C0F195E195F109E32E022F15
:1010E0002E2FAE010E947B08CE01DF91CF911F9180
:1010F0000F91EF9008954F925F926F927F929F921F
:10110000AF92BF92CF92DF92EF92FF920F931F9315
:10111000CF93DF93CDB7DEB729970FB6F894DEBF34
:101120000FBECDBF6A01122FB02E2BE3201720F087
:10113000FF24F394F00E02C0BCE3FB2E0F2D27E03A
:10114000AE014F5F5F4F0E94090AAC018981982F61
:101150009970913031F0E1FC06C0E0FE06C090E2EB
:1011600005C09DE203C09BE201C090E0EE2DE0715E
:1011700083FF3CC0911102C083E001C084E081176D
:1011800018F4212F281B01C020E0E1110BC0F6014B
:10119000822F30E2882319F031938150FBCFC20EA9
:1011A000D11C20E0992329F0D6019C93F6013196B9
:1011B0006F01C6010396E2FE0AC03EE4D6013C93ED
:1011C00041E411964C93119712963C9306C03EE66B
:1011D000F601308341E641833283FC01322F40E245
:1011E000332309F442C041933150FACF82FF44C007
:1011F000911102C083E001C084E0811718F4212F0F
:10120000281B01C020E0E1110BC0F601822F30E263
:10121000882319F031938150FBCFC20ED11C20E0FE
:10122000992329F0D6019C93F60131966F01C601EE
:101230000396E2FE0BC039E4D6013C933EE41196DE
:101240003C93119736E412963C9307C039E6F601B9
:1012500030833EE6318336E63283FC01322F40E2B2
:10126000332319F041933150FBCFFC01E20FF11D04
:1012700010828EEF9FEFB7C0F1E0911101C0F0E056
:101280006F2F70E01416150624F49A012F5F3F4F5C
:1012900002C021E030E0260F371FBB2029F06B2D64
:1012A00070E06F5F7F4F02C060E070E0260F371F75
:1012B000612F70E0261737071CF4121B212F01C085
:1012C00020E03E2D387159F4D601322F60E23323ED
:1012D00019F06D933150FBCFC20ED11C20E0FF23DB
:1012E00031F0D6019C93B6016F5F7F4F6B01E11126
:1012F0000BC0F601922F30E3992319F031939150EE
:10130000FBCFC20ED11C20E09F2D940F3A81782F85
:101310007071A72E84FF03C0313309F49150191660
:1013200024F4993018F098E001C091E0E42F852F63
:1013300057FF02C0E0E080E06E2F782FE0E0F0E0A1
:10134000AEE29A2E3A01691A71082A01461A570A22
:101350000B2D10E01195019511096F3F8FEF780764
:1013600029F4D6019C92C60101966C0146175707D5
:1013700084F0661677066CF47F01E40CF51CA1E09E
:10138000B0E0AC0FBD1FEA0EFB1ED7011196BC905A
:1013900002C090E3B92E615071093196C6010196E1
:1013A0007C016017710724F0D601BC926C01D5CF87
:1013B0006417750741F4363320F4353321F4A11056
:1013C00002C081E3B82EF601B082F701822F90E2CD
:1013D000882319F091938150FBCFF701E20FF11DA3
:1013E000108280E090E029960FB6F894DEBF0FBE21
:1013F000CDBFDF91CF911F910F91FF90EF90DF90C4
:10140000CF90BF90AF909F907F906F905F904F90E4
:101410000895283008F027E03327DA01990F311DAD
:1014200087FD916000966105710539F432602E5F89
:101430003D9330E32A95E1F708959F3F30F08038DF
:101440007105610509F03C5F3C5F3D93913008F008
:101450008068911DDF93CF931F930F93FF92EF92BC
:10146000192F987F9695E92F96959695E90FFF2766
:10147000EE53FF4F99273327EE24FF24A701E701FE
:1014800005900894079428F4360FE71EF81E491FAC
:10149000511D660F771F881F991F0694A1F70590AD
:1014A000079428F4E70EF81E491F561FC11D770F39
:1014B000881F991F661F0694A1F70590079428F4CA
:1014C000F80E491F561FC71FD11D880F991F661F91
:1014D000771F0694A1F70590079420F4490F561F33
:1014E000C71FD81F990F661F771F881F0694A9F77B
:1014F00084911095177041F0D695C79557954795EB
:10150000F794E7941A95C1F7E8E6F0E0689415902F
:10151000159135916591959105907FE27395E1184C
:10152000F10A430B560BC90BD009C0F7E10CF11EB1
:10153000431F561FC91FD01D7EF4703311F48A95C6
:10154000E6CFE894015030F0080F0AF400270217A4
:1015500008F4202F2395022F7A3328F079E37D9326
:101560002A95E9F710C07D932A9589F606949795F8
:101570006795379517951794E118F10A430B560BA9
:10158000C90BD00998F023957E9173957A3308F0B2
:1015900070E37C932013B8F77E9170617D9330F0F7
:1015A000839571E37D9370E32A95E1F71124EF9021
:1015B000FF900F911F91CF91DF91992787FD909513
:1015C0000895E89409C097FB3EF490958095709536
:1015D00061957F4F8F4F9F4F9923A9F0F92F96E97F
:1015E000BB279395F695879577956795B795F111F4
:1015F000F8CFFAF4BB0F11F460FF1BC06F5F7F4F91
:101600008F4F9F4F16C0882311F096E911C07723A2
:1016100021F09EE8872F762F05C0662371F096E8AB
:10162000862F70E060E02AF09A95660F771F881F7A
:10163000DAF7880F9695879597F90895990F00081E
:10164000550FAA0BE0E8FEEF16161706E807F90794
:10165000C0F012161306E407F50798F0621B730B2F
:10166000840B950B39F40A2661F0232B242B252BB0
:1016700021F408950A2609F4A140A6958FEF811D53
:10168000811D08950E94550B0C94C60B0E94B80B47
:1016900038F00E94BF0B20F0952311F00C94AF0B93
:1016A0000C94B50B11240C94FA0B0E94D70B70F319
:1016B000959FC1F3950F50E0551F629FF001729FF7
:1016C000BB27F00DB11D639FAA27F00DB11DAA1F06
:1016D000649F6627B00DA11D661F829F2227B00D53
:1016E000A11D621F739FB00DA11D621F839FA00DDE
:1016F000611D221F749F3327A00D611D231F849F2E
:10170000600D211D822F762F6A2F11249F57504084
:101710009AF0F1F088234AF0EE0FFF1FBB1F661FFF
:10172000771F881F91505040A9F79E3F510580F0C8
:101730000C94AF0B0C94FA0B5F3FE4F3983ED4F398
:10174000869577956795B795F795E7959F5FC1F76C
:10175000FE2B880F911D9695879597F9089597F917
:101760009F6780E870E060E008959FEF80EC089547
:1017700000240A9416161706180609060895002470
:101780000A9412161306140605060895092E0394EA
:10179000000C11F4882352F0BB0F40F4BF2B11F45E
:1017A00060FF04C06F5F7F4F8F4F9F4F089557FDBD
:1017B0009058440F551F59F05F3F71F04795880FBF
:1017C00097FB991F61F09F3F79F087950895121656
:1017D00013061406551FF2CF4695F1DF08C0161602
:1017E00017061806991FF1CF8695710561050894B3
:1017F0000895E894BB2766277727CB0197F90895CA
:101800002F923F924F925F926F927F928F929F9210
:10181000AF92BF92CF92DF92EF92FF920F931F93FE
:10182000CF93DF93CDB7DEB7CA1BDB0B0FB6F894AF
:10183000DEBF0FBECDBF09942A88398848885F84EF
:101840006E847D848C849B84AA84B984C884DF8060
:10185000EE80FD800C811B81AA81B981CE0FD11D44
:101860000FB6F894DEBF0FBECDBFED0108955058FE
:10187000BB27AA270E944F0C0C94C60B0E94B80BE2
:1018800038F00E94BF0B20F039F49F3F19F426F482
:101890000C94B50B0EF4E095E7FB0C94AF0BE92F1D
:1018A0000E94D70B58F3BA1762077307840795078E
:1018B00020F079F4A6F50C94F90B0EF4E0950B2EBC
:1018C000BA2FA02D0B01B90190010C01CA01A00192
:1018D0001124FF27591B99F0593F50F4503E68F1ED
:1018E0001A16F040A22F232F342F4427585FF3CF2E
:1018F000469537952795A795F0405395C9F77EF4FF
:101900001F16BA0B620B730B840BBAF09150A1F047
:10191000FF0FBB1F661F771F881FC2F70EC0BA0FCD
:10192000621F731F841F48F4879577956795B79555
:10193000F7959E3F08F0B0CF9395880F08F0992750
:10194000EE0F9795879508950E94B80C0C94C60BDE
:101950000E94BF0B58F00E94B80B40F029F45F3F83
:1019600029F00C94AF0B51110C94FA0B0C94B50B9D
:101970000E94D70B68F39923B1F3552391F3951B7C
:10198000550BBB27AA2762177307840738F09F5FA0
:101990005F4F220F331F441FAA1FA9F335D00E2E0D
:1019A0003AF0E0E832D091505040E695001CCAF77A
:1019B0002BD0FE2F29D0660F771F881FBB1F26173D
:1019C00037074807AB07B0E809F0BB0B802DBF0114
:1019D000FF2793585F4F3AF09E3F510578F00C94E3
:1019E000AF0B0C94FA0B5F3FE4F3983ED4F386956B
:1019F00077956795B795F7959F5FC9F7880F911D04
:101A00009695879597F90895E1E0660F771F881FEF
:101A1000BB1F621773078407BA0720F0621B730BA2
:101A2000840BBA0BEE1F88F7E09508950E941E0BF9
:101A300008F48FEF0895EE0FFF1F0590F491E02D4D
:101A40000994CF93DF938230910510F482E090E007
:101A5000E0917F02F091800220E030E0C0E0D0E031
:101A6000309711F14081518148175907C0F048174C
:101A7000590761F482819381209719F09B838A83AF
:101A80002BC09093800280937F0226C021153105E0
:101A900019F04217530718F49A01BE01DF01EF0154
:101AA0000280F381E02DDCCF2115310509F1281BDF
:101AB000390B2430310590F412968D919C91139737
:101AC0006115710521F0FB019383828304C090931B
:101AD000800280937F02FD01329644C0FD01E20F37
:101AE000F31F81939193225031092D933C933AC077
:101AF00020917D0230917E02232B41F4209103013D
:101B00003091040130937E0220937D0220910101E7
:101B1000309102012115310541F42DB73EB74091B6
:101B2000050150910601241B350BE0917D02F091D7
:101B30007E02E217F307A0F42E1B3F0B281739078C
:101B400078F0AC014E5F5F4F2417350748F04E0F19
:101B50005F1F50937E0240937D028193919302C058
:101B6000E0E0F0E0CF01DF91CF9108950F931F9354
:101B7000CF93DF93009709F48CC0FC013297138256
:101B8000128200917F02109180020115110581F4EB
:101B900020813181820F931F20917D0230917E023E
:101BA0002817390779F5F0937E02E0937D0271C022
:101BB000D80140E050E0AE17BF0750F412962D91C7
:101BC0003C911397AD012115310509F1D901F3CFEE
:101BD0009D01DA013383228360817181860F971F13
:101BE0008217930769F4EC0128813981260F371F8A
:101BF0002E5F3F4F318320838A819B819383828331
:101C0000452B29F4F0938002E0937F0242C01396A3
:101C1000FC93EE931297ED01499159919E01240F87
:101C2000351FE217F30771F480819181840F951FAE
:101C3000029611969C938E938281938113969C9326
:101C40008E931297E0E0F0E0D80112968D919C916E
:101C50001397009719F0F8018C01F6CF8D919C91A4
:101C600098012E5F3F4F820F931F20917D0230918C
:101C70007E022817390769F4309729F41092800200
:101C800010927F0202C01382128210937E02009390
:101C90007D02DF91CF911F910F910895A0E0B0E0F8
:101CA000E4E5FEE00C94040CEC01009721F4CB0178
:101CB0000E94210DB8C0FC01E60FF71F9C012250C5
:101CC0003109E217F30708F4ACC0D9010D911C915A
:101CD000119706171707B0F00530110508F49FC0DB
:101CE000C80104978617970708F499C00250110994
:101CF000061B170B019311936D937C93CF010E94E8
:101D0000B60D8DC05B01A01AB10A4C01800E911E68
:101D1000A0917F02B091800240E050E0E12CF12CD4
:101D2000109709F44AC0A815B905D1F56D907C90BB
:101D30001197630182E0C80ED11CCA14DB0480F144
:101D4000A3014A195B096A0182E0C80ED11C1296F0
:101D5000BC9012971396AC91B5E0CB16D10440F02D
:101D6000B282A38351834083D9016D937C930AC0CF
:101D70000E5F1F4FC301800F911FF9019183808374
:101D8000EB2DFA2FE114F10431F0D7011396FC93F7
:101D9000EE93129744C0F0938002E0937F023FC01D
:101DA0008D919C9111974817590708F4AC017D015A
:101DB00012960D90BC91A02DB3CF80917D02909191
:101DC0007E0288159905E1F446175707C8F48091FB
:101DD000010190910201009741F48DB79EB74091A7
:101DE000050150910601841B950BE817F907C8F40B
:101DF000F0937E02E0937D02F901718360830FC04E
:101E0000CB010E94210D7C01009759F0A801BE0171
:101E10000E941D0FCE010E94B60DC70104C0CE0165
:101E200002C080E090E0CDB7DEB7EEE00C94200C6D
:101E300081E090E0F8940C942D0FFB01DC0102C0CE
:101E400001900D9241505040D8F70895FB01DC01FC
:101E500001900D920020E1F7089510E0C0EED0E06F
:101E600004C0FE010E941B0D2196C13ED107C9F797
:041E7000F894FFCF14
:101E7400FF00008102800000000000C3010B015B31
:101E8400010A028C016A017E010D0A00536D6F6B19
:101E9400652044657465637465642E2046697265C3
:101EA40020416C65727421004E6F20536D6F6B6519
:101EB4002044657465637465640054656D7065726F
:101EC400617475726520697320746F6F2068696727
:101ED40068210048756D6964697479206578636563
:101EE40065646564206E6F726D616C20636F6E64EF
:101EF4006974696F6E210054656D706572617475E3
:101F04007265203A200048756D6964697479203AD5
:021F14002000AB
:00000001FF
